:020000040800F2
:10000000080B002089010008E9230008EB23000801
:10001000EF230008F3230008F72300080000000086
:10002000000000000000000000000000FB230008AA
:10003000FD23000800000000FF2300080124000841
:10004000A3010008A3010008A3010008A301000800
:10005000A3010008A3010008A3010008A3010008F0
:10006000A3010008A3010008A3010008A3010008E0
:10007000A3010008A3010008A3010008A3010008D0
:10008000A3010008A3010008A3010008A3010008C0
:10009000A3010008A3010008A3010008A3010008B0
:1000A000A3010008A3010008A3010008A3010008A0
:1000B000CB2C0008A3010008A3010008A30100083D
:1000C000A3010008A3010008A3010008A301000880
:1000D000A3010008D9260008A736000867330008E6
:1000E000A3010008A3010008A301000800F002F822
:1000F00000F03AF80AA090E8000C82448344AAF188
:100100000107DA4501D100F02FF8AFF2090EBAE885
:100110000F0013F0010F18BFFB1A43F0010318473B
:10012000B4360000D4360000103A24BF78C878C135
:10013000FAD8520724BF30C830C144BF04680C60ED
:10014000704700000023002400250026103A28BF35
:1001500078C1FBD8520728BF30C148BF0B60704739
:100160001FB51FBD10B510BD03F0F9FA1146FFF71A
:10017000F7FF02F0D7F803F017FB03B4FFF7F2FF25
:1001800003BC03F01FFB00000948804709480047F3
:10019000FEE7FEE7FEE7FEE7FEE7FEE7FEE7FEE737
:1001A000FEE7FEE704480549054A064B7047000094
:1001B000E3240008ED00000808050020080B0020DB
:1001C000080700200807002031490143314A116027
:1001D000704770B5002100230F22C47804B32D4C62
:1001E000246804F4E064C4F5E064210AC1F1040366
:1001F000CA40447804FA03F1847814402143090189
:10020000254C0678A155047804F01F050124AC4064
:1002100005786D11AD0005F1E025C5F8004109E054
:10022000047804F01F050124AC401C4D06787611BB
:1002300045F8264070BD1A4A0A400243154B1B1F61
:100240001A60704739B1134A121D12680243114BEC
:100250001B1D1A6006E00F4A121D126882430D4BE7
:100260001B1D1A607047042808D14FF0E02109696E
:1002700041F004014FF0E022116107E04FF0E0216E
:10028000096921F004014FF0E0221161704700007C
:100290000000FA050CED00E000E400E080E100E081
:1002A00080FFFF1F10B50446FA48844208D101219F
:1002B000401500F055FD0021601500F051FD17E0DC
:1002C000F548844208D10121001500F049FD0021C4
:1002D000201500F045FD0BE0F048844208D10121D3
:1002E000C80300F03DFD00214FF4004000F038FD50
:1002F00010BD30B50246002000235068E84C204075
:100300000D790C6844EA0524204350609068E54C60
:100310002040D1E902542C434D7944EA450420435E
:100320009060D06A20F470000C7C641EE4B2234319
:1003300040EA0350D06230BD00210160017141717B
:100340008160C16001210174704721B1826842F06F
:100350000102826003E0826822F00102826070473D
:1003600021B1826842F48072826003E0826822F4E4
:1003700080728260704710B50023CBB21AB1446816
:100380001C43446002E044689C43446010BD8168A3
:1003900041F0080181607047014600208A6802F040
:1003A00008020AB1012000E000207047816841F096
:1003B000040181607047014600208A6802F004024F
:1003C0000AB1012000E00020704721B1826842F4A8
:1003D000A002826003E0826822F4A002826070477B
:1003E000014600208A6802F480020AB1012000E080
:1003F0000020704710B50A4600210023416821F40F
:100400006041531E41EA4331416010BD21B1426851
:1004100042F40062426003E0426822F400624260FB
:100420007047F0B504460D4600200021092D11DD6E
:10043000E068A5F10A0606EB4607072606FA07F16B
:100440008843A5F10A0606EB460603FA06F10843BF
:10045000E0600CE0206905EB4507072606FA07F186
:10046000884305EB450603FA06F108432061072A95
:100470000FDA606B561E06EB86071F2606FA07F199
:100480008843561E06EB860605FA06F108436063AC
:1004900022E00D2A0FDA206BD61F06EB86071F26F7
:1004A00006FA07F18843D61F06EB860605FA06F121
:1004B0000843206310E0E06AA2F10D0606EB860710
:1004C0001F2606FA07F18843A2F10D0606EB860601
:1004D00005FA06F10843E062F0BD21B1826842F4FA
:1004E0008012826003E0826822F48012826070478A
:1004F0000146C86C80B2704766484C30006870474F
:1005000021B1426842F48062426003E0426822F412
:1005100080624260704721B1426842F4805242607A
:1005200003E0426822F48052426070470A4600218C
:10053000816821F4E04111438160704721B18268F4
:1005400042F40042826003E0826822F4004282604A
:10055000704721B1826842F40212826003E082682F
:1005600022F4021282607047014600208A6802F479
:1005700000120AB1012000E000207047F0B50446E7
:100580001546002000220026092911DDE068A1F1AE
:100590000A0707EB470C072707FA0CF29043A1F173
:1005A0000A0707EB470703FA07F21043E0600CE085
:1005B000206901EB410C072707FA0CF2904301EB8D
:1005C000410703FA07F210432061A06BC0F3015604
:1005D000EF1C06F1010CA7EB0C0707EB870C1F279C
:1005E00007FA0CF29043EF1C06F1010CA7EB0C0785
:1005F00007EB870701FA07F21043A063F0BD10B5BF
:100600000A4600210023816B21F44011531E41EA68
:100610000351816310BD08B5002300930090009B37
:100620000B440093009B1A6008BD08B502460020E9
:100630000090009201F12800009B1844009000985F
:10064000006880B208BD0A4600214168164B194077
:100650001143416070474162826270470A4600213F
:10066000416821F01F0111434160704740B10949C1
:100670000831096841F40001064A0832116007E0B8
:1006800004490831096821F40001024A0832116066
:10069000704700000024014000280140003C014058
:1006A000FFFEF0FFFDF7F1FFFFFD3FFF02460020D8
:1006B00013680B400BB1012000E000207047CA43D3
:1006C0000260704770B502460020002300240B1220
:1006D0005568CEB205EA060415681D4015B10CB187
:1006E000012000E0002070BD00220A12D343036005
:1006F0007047000010B50446CC48844208D101215F
:10070000042000F02DFB0021042000F029FB46E02E
:10071000C748844208D10121082000F021FB0021B4
:10072000082000F01DFB3AE0C248844208D10121B4
:10073000102000F015FB0021102000F011FB2EE02E
:10074000BD48844208D10121202000F009FB00218E
:10075000202000F005FB22E0B848844208D10121A6
:10076000402000F0FDFA0021402000F0F9FA16E0E8
:10077000B348844208D10121802000F0F1FA002121
:10078000802000F0EDFA0AE0AE48844207D1012152
:10079000801500F0E5FA0021A01500F0E1FA10BD87
:1007A00010B50121084600F0DBFA0021012000F01D
:1007B000D7FA10BD2DE9F0410246002500260020A1
:1007C00000230024002791F803C00CF00F0591F8D6
:1007D00003C00CF0100CBCF1000F03D091F802C064
:1007E0004CEA050591F800C0BCF1000F31D0146847
:1007F00000202BE04FF0010C0CFA00F3B1F800C020
:100800000CEA03069E4220D183004FF00F0C0CFA35
:1008100003F7BC4305FA03FC4CEA040491F803C057
:10082000BCF1280F06D14FF0010C0CFA00FCC2F805
:1008300014C00AE091F803C0BCF1480F05D14FF095
:10084000010C0CFA00FCC2F810C0401C0828D1D3DF
:100850001460B1F800C0BCF1FF0F34DD5468002013
:100860002EE000F1080C4FF0010808FA0CF3B1F883
:1008700000C00CEA03069E4221D183004FF00F0C0A
:100880000CFA03F7BC4305FA03FC4CEA040491F8A4
:1008900003C0BCF1280F05D100F1080C08FA0CF8D0
:1008A000C2F8148091F803C0BCF1480F07D100F1E1
:1008B000080C4FF0010808FA0CF8C2F81080401C30
:1008C0000828CED35460BDE8F0814FF6FF71018057
:1008D000022181700421C170704702460020936894
:1008E0000B400BB1012000E00020704701468868F2
:1008F00080B2704702460020D3680B400BB1012044
:1009000000E0002070470146C86880B2704701616E
:100910007047416170470AB1016100E04161704771
:10092000C16070474FF480320A4382618161826105
:1009300082698269704702460020434B18684FF66F
:100940008073184040EA021008433F4B186070471C
:100950003E49C8617047F0B50A46002300240021D3
:10096000002500F00046B6F1004F02D1364EF16985
:1009700001E0354E7168C0F3034583B200F44016C0
:10098000B6F5401F08D121F070612F4E766826F031
:1009900070662D4F7E6012E000F48016B6F5801F61
:1009A00006D1032606FA05F4A14341F0706106E082
:1009B000460D360103FA06F6B14341F0706122B1EB
:1009C000460D360103FA06F6314300F00046B6F153
:1009D000004F02D11C4EF16101E01B4E7160F0BD71
:1009E00030B500228B071C0F0F2303FA04F2164BBD
:1009F00008338C1053F824309343134C08348D1073
:100A000044F8253023468C1053F824308C07240FEB
:100A100000FA04F423430C4C08348D1044F82530BC
:100A200030BD0A49DC310860704700000008014011
:100A3000000C01400010014000140140001801406A
:100A4000001C014000200140000001400000204245
:100A5000DF48006840F00100DD4908600846406852
:100A6000DC490840DA49486008460068DA4908402D
:100A7000D74908600846006820F4802008600846CE
:100A8000406820F4FE0048604FF41F008860704703
:100A9000CF49096821F48031CD4A116011460968B7
:100AA00021F480211160B0F5803F03D0B0F5802F94
:100AB0000ED106E0C649096841F48031C44A11608C
:100AC00007E0C349096841F4A021C14A116000E070
:100AD00000BF00BF704710B5014600220023002070
:100AE0004A11012A02D1BA4C236806E0022A02D137
:100AF000B74C236A01E0B64C636A01F01F0201247F
:100B000094401C400CB1012000E0002010BD38B51D
:100B1000002000900024002500BF3120FFF7DBFFFC
:100B200005460098401C00900098B0F5A06F01D0D9
:100B3000002DF2D03120FFF7CEFF08B1012400E0F4
:100B40000024204638BD01460020A14A106820F04C
:100B5000F80040EAC10010607047A0490860704783
:100B6000024600209A4B586820F47C1042EA0103A8
:100B70001843974B5860704798490866704701467C
:100B80000020934A506820F00300084350607047EB
:100B90008F48406800F00C007047014600208C4AE6
:100BA000506820F0F0000843506070470146002074
:100BB000874A506820F4E06008435060704701465F
:100BC0000020834A506820F4605040EAC100506021
:100BD000704729B17E4A527A02437D4B5A7204E033
:100BE0007B4A527A82437A4B5A7270477B49D8319A
:100BF0000860704701460020754A506820F4404064
:100C00000843506070470021714A20321170704AC9
:100C100082F82010012802D004280AD104E0012122
:100C20006B4A2032117005E00521694A20321170AB
:100C300000E000BF00BF7047694908607047644921
:100C4000096A0143624A1162704765494439086084
:100C5000704730B500210022002400235C4D6D68F0
:100C600005F00C0121B1042905D0082923D105E0A4
:100C70005C4D056022E05B4D05601FE0544D6D68E2
:100C800005F47012524D6D6805F48034022505EBB1
:100C900092421CB9544D554305600BE04C4D6D68B4
:100CA00005F400351DB1504D5543056002E04D4D32
:100CB0005543056002E04B4D056000BF00BF444D49
:100CC0006D6805F0F0010909484D6B5C0568DD4071
:100CD00045603F4D6D6805F4E061090A434D6B5C6A
:100CE0004568DD4085603A4D6D6805F46051C90A7C
:100CF0003E4D6B5C4568DD40C560354D6D6805F463
:100D00004041890B3A4D6B5CC568B5FBF3F5056155
:100D100030BD29B12E4A526902432D4B5A6104E07D
:100D20002B4A526982432A4B5A61704729B1284A9B
:100D300092690243264B9A6104E0254A92698243F4
:100D4000234B9A61704729B1214AD2690243204B53
:100D5000DA6104E01E4AD26982431D4BDA617047B2
:100D600029B11B4AD2680243194BDA6004E0184AE1
:100D7000D2688243164BDA60704729B1144A12696F
:100D80000243134B1A6104E0114A12698243104B6B
:100D90001A61704712494039086070470F49C864AA
:100DA00070470B49C87170470948406A40F080702D
:100DB00007494862704701460020054A92680A4088
:100DC0000AB1012000E00020704701498872704795
:100DD000001002400000FFF8FFFFF6FE0000424254
:100DE0008004424200127A0000093D000000002009
:100DF0001000002010B50446BE48844208D10121ED
:100E00008014FFF7ADFF0021A014FFF7A9FF16E043
:100E1000B948844208D101210014FFF7AEFF002138
:100E20002014FFF7AAFF0AE0B448844207D1012149
:100E3000C013FFF7A2FF0021E013FFF79EFF10BDD4
:100E400010B50022028802F441520B884C882343DB
:100E50008C882343CC8823430C8923434C89234328
:100E60008C892343CC8923431A430280838B4FF21E
:100E7000FF74234083830B8A038210BD2DE9F04F5A
:100E800085B005460C464FF0000902274FF00008D8
:100E90004FF0010B0026B246A88B4FF240010840EC
:100EA000A88302202884B5F81C90A068022801D1EC
:100EB00000BF38E0A08810B94FF0010B01E04FF0FF
:100EC000020B8D48854200D100E000BF6846FFF765
:100ED000C0FEDDF800A0E088B0F5007F0AD14FEA3F
:100EE0001A2000EB80004000A168B0FBF1F0401D2B
:100EF00086B20BE04FEA4B10BAFBF0F000EB80003B
:100F00004000A168B0FBF1F0401D86B20A20B6FB9C
:100F1000F0F606F00108A6EB0800C0F34F074FF605
:100F2000FF7000EA0828022F01DBFF2F02DD0227F5
:100F30004FF00008E08840EA080038432884A08881
:100F4000A1890843618808432188084340F4006070
:100F500040EA0909A5F81C9005B0BDE8F08F002112
:100F6000018041808180C180018141818181C18175
:100F70000721018270470021018041808180C1806A
:100F80000221816000218181704721B1028842F0F5
:100F90004002028004E002884FF6BF731A400280CC
:100FA000704721B1828B42F48062828304E0828B9D
:100FB0004FF6FF331A408283704730B50024002378
:100FC0000C110125A540ABB21AB185881D4385805F
:100FD00002E085889D43858030BD1AB183880B432C
:100FE000838002E083888B438380704781817047D0
:100FF0000146888970474FF6FF62914204D002880B
:1010000042F48072028004E002884FF6FF631A40C7
:101010000280704721B1828842F00402828004E09D
:1010200082884FF6FB731A408280704702884FF225
:10103000FF731A40028002880A43028070470188C9
:1010400041F480510180704721B1028842F400527E
:10105000028004E002884DF6FF731A400280704758
:1010600002460020012901D0108B00E0908A7047D1
:101070000146088A7047B1F5804F04D1028842F4D6
:101080008042028004E002884BF6FF731A4002801F
:1010900070470246002013890B400BB1012000E08D
:1010A00000207047CA4302817047F0B50246002015
:1010B00000240023002501F00F070126BE40B4B232
:1010C0000B1101269E40B3B2968806EA03051689E5
:1010D000264016B10DB1012000E00020F0BD10B592
:1010E000002201F00F040123A3409AB2D3430381ED
:1010F00010BD00000030014000380040003C0040BE
:1011000010B50446FE48844208D10121C014FFF7FF
:1011100027FE0021E014FFF723FEC4E0B4F1804F66
:1011200008D101210846FFF728FE00210120FFF722
:1011300024FEB8E0F348844208D101210220FFF7E1
:101140001CFE00210220FFF718FEACE0EE488442AE
:1011500008D101210420FFF710FE00210420FFF731
:101160000CFEA0E0E948844208D101210820FFF7E5
:1011700004FE00210820FFF700FE94E0E4488442CA
:1011800008D101211020FFF7F8FD00211020FFF702
:10119000F4FD88E0DF48844208D101212020FFF7D8
:1011A000ECFD00212020FFF7E8FD7CE0DA488442D6
:1011B00008D101214014FFF7D3FD00216014FFF78F
:1011C000CFFD70E0D548844209D10121C804FFF762
:1011D000C7FD00214FF40020FFF7C2FD63E0D048B7
:1011E000844209D101210805FFF7BAFD00214FF41F
:1011F0008010FFF7B5FD56E0CA48844209D10121AD
:101200004805FFF7ADFD00214FF40010FFF7A8FDE2
:1012100049E0C548844208D101214020FFF7ADFDD7
:1012200000214020FFF7A9FD3DE0C048844208D1DD
:1012300001218020FFF7A1FD00218020FFF79DFD07
:1012400031E0BB48844208D101218015FFF795FDAC
:101250000021A015FFF791FD25E0B648844209D191
:1012600001210804FFF77CFD00214FF48030FFF7D7
:1012700077FD18E0B048844209D101214804FFF706
:101280006FFD00214FF40030FFF76AFD0BE0AB4823
:10129000844208D101218804FFF762FD00214FF448
:1012A0008020FFF75DFD10BD00220288944B98421C
:1012B0000ED0994B98420BD0B0F1804F08D0914B93
:1012C000984205D0904B984202D0904B984204D15E
:1012D0004FF68F731A404B881A438D4B984207D0B4
:1012E0008C4B984204D04FF6FF431A40CB881A43E8
:1012F00002808B8883850B880385814B98420BD0B5
:10130000854B984208D08B4B984205D08A4B984227
:1013100002D08A4B984201D10B7A03860123838243
:10132000704770B5002400220023058C4FF6FE762E
:1013300035400584028C8388048B4FF68F752C40D2
:10134000B51E2C400D882C43751E2A400D892A435A
:101350004D882A436A4DA8420BD06F4DA84208D051
:10136000744DA84205D0744DA84202D0734DA842D6
:1013700013D14FF6F7752A404D892A434FF6FB7576
:101380002A408D882A434FF6FF652B404FF6FF55C4
:101390002B408D892B43CD892B4383800483CD88BB
:1013A0008586028470BD70B5002400220023058C60
:1013B0004FF6EF7635400584028C8388048B48F61F
:1013C000FF752C404FF6FF452C400D884FF6FF76F9
:1013D00006EA05252C434FF6DF752A400D8906EAFB
:1013E00005152A434D8806EA05152A43444DA842AF
:1013F00002D0494DA8421DD14FF67F752A404D8934
:101400004FF6FF7606EA05152A434FF6BF752A40C8
:101410008D8806EA05152A434FF6FF352B404FF21B
:10142000FF752B408D8906EA85052B43CD8906EA99
:1014300085052B4383800483CD880587028470BD96
:1014400070B5002400220023058C4FF6FF6635405E
:101450000584028C8388848B4FF68F752C404FF661
:10146000FC752C400D882C434FF6FF552A400D8902
:101470004FF6FF7606EA05252A434D8806EA05253C
:101480002A431F4DA84202D0234DA8421DD14FF23E
:10149000FF752A404D894FF6FF7606EA05252A4357
:1014A0004FF6FF352A408D8806EA05252A434EF679
:1014B000FF752B404DF6FF752B408D8906EA05150B
:1014C0002B43CD8906EA05152B4383808483CD8881
:1014D0008587028470BD70B5002200230024058C2E
:1014E0004EF6FF7635400584038C8488828B48F65F
:1014F000FF752A404FF6FF452A400D8820E0000086
:10150000002C01400004004000080040000C004096
:10151000001000400014004000340140004C014025
:10152000005001400054014000180040001C0040E1
:1015300000200040004001400044014000480140BC
:101540004FF6FF7606EA05252A434DF6FF752B4038
:101550000D8906EA05352B434D8806EA05352B43F0
:10156000FA4DA84202D0FA4DA84208D14BF6FF75B9
:101570002C408D894FF6FF7606EA85152C43848032
:101580008283CD88A0F84050038470BD828B4FF2D7
:10159000FF331A408283828B4FF6FF7303EA0123E5
:1015A0001A4382837047F0B50C461546002200218D
:1015B0000026078C4EF6FF7C07EA0C070784828B17
:1015C000018C4FF6FF7707EA043640F6FF473A40B2
:1015D0004FF6FF7707EA05273A434FF6FF7707EA0A
:1015E00003373A43D94FB8420ED0D94FB8420BD047
:1015F000B0F1804F08D0D74FB84205D0D64FB8428F
:1016000002D0D64FB84206D14DF6FF77394046F4A6
:101610008057394305E047F6FF57394044F4805777
:10162000394382830184F0BD828B4FF6F3731A40F5
:101630008283828B0A4382837047F0B50C4615463D
:10164000002200210026078C4FF6FF6C07EA0C07EA
:101650000784828B018C4FF6FF7707EA04264FF64A
:101660000C773A404FF6FF7707EA03172F433A43C8
:10167000B64FB8420ED0B64FB8420BD0B0F1804F43
:1016800008D0B44FB84205D0B34FB84202D0B34FE0
:10169000B84206D14FF6FF57394046F480773943B8
:1016A00005E04FF2FF57394044F480773943828395
:1016B0000184F0BD028B4FF2FF331A400283028B8C
:1016C0004FF6FF7303EA01231A4302837047F0B514
:1016D0000C461546002200210026078C4FF6EF7CB1
:1016E00007EA0C070784028B018C4FF6FF7707EAA5
:1016F000041640F6FF473A404FF6FF7707EA0337F4
:101700003A434FF6FF7707EA05273A438F4FB8422F
:101710000ED08F4FB8420BD0B0F1804F08D08D4F14
:10172000B84205D08C4FB84202D08C4FB84206D197
:101730004FF6DF77394046F01007394305E04FF6A2
:101740005F77394044F01007394302830184F0BDCC
:10175000028B4FF6F3731A400283028B0A43028313
:101760007047F0B50C46154600220021068C4FF656
:10177000FE773E400684028B018C4FF60C76324099
:101780007E1C06EA03162E433243704EB0420ED042
:101790006F4EB0420BD0B0F1804F08D06D4EB042CA
:1017A00005D06D4EB04202D06C4EB04206D14FF61D
:1017B000FD76314044F00106314305E04FF6F57601
:1017C000314044F00106314302830184F0BD70B51D
:1017D00005460C465D4885420ED05D4885420BD0DB
:1017E000B5F1804F08D05B48854205D05A48854204
:1017F00002D05A48854200D100E000BF208850B98D
:101800002389A28861882846FFF7ABFFE188284634
:10181000FFF79EFF25E0208804280AD12389A288AB
:1018200061882846FFF753FFE1882846FFF742FF0B
:1018300017E0208808280AD12389A28861882846D1
:10184000FFF7FBFEE1882846FFF7EEFE09E023895B
:10185000A28861882846FFF7A6FEE1882846FFF7A0
:1018600095FE70BD2DE9F04105460C460026012786
:10187000608808B9022600E00026A088012801D16E
:10188000022700E001272088A0B92389A288618867
:101890002846FFF766FFE1882846FFF759FF2389AE
:1018A0003A4631462846FFF712FFE1882846FFF7FF
:1018B00001FF13E02389A28861882846FFF707FF0C
:1018C000E1882846FFF7F6FE23893A463146284646
:1018D000FFF747FFE1882846FFF73AFFBDE8F081B0
:1018E0000A884B881A438B881A43CB881A430B8982
:1018F0001A434B891A438B891A43A0F84420704736
:101900004FF6FF71818000210180C180418001720A
:1019100070470021018041808180C1800181418127
:101920008181C18170470021018041800121818036
:101930000021C180018170470021018041808180A8
:10194000C18001814181818170470000002C0140EC
:10195000003401400004004000080040000C00403A
:1019600021B1028842F00102028004E002884FF6B1
:10197000FE731A400280704731B1B0F8442042F43F
:101980000042A0F8442005E0B0F84420C2F30E0263
:10199000A0F8442070471AB183890B43838102E089
:1019A00083898B43838170478182704741EA0203B8
:1019B000A0F8483070471AB183890B43838102E055
:1019C00083898B438381704701894FF6F8721140F8
:1019D000018170470A46002101894FF68F73194033
:1019E00011430181704730B504460D462946204613
:1019F000FFF7F0FF208940F00700208130BD2DE97E
:101A0000F04104460D4616461F46602D06D13B4662
:101A1000012231462046FFF75AFE05E03B460122EF
:101A200031462046FFF79DFE29462046FFF7D2FFAC
:101A3000208940F007002081BDE8F08130B50C46D8
:101A400000210189C9B24FF6FF7505EA0325154348
:101A500025432943018130BD2DE9F04105460E465D
:101A600017469846002443463A4631462846FFF733
:101A7000E5FF2C894FF6F870044044F007044FF658
:101A80008F70044044F070042C81BDE8F081F0B503
:101A900004460D4616461F463B463246294620461A
:101AA000FFF7CCFF208940F480402081F0BD018504
:101AB000828270470A46002101884FF68F731940D1
:101AC000114301807047F0B50C4615461E460021B3
:101AD000002200230189028B038C4FF6F8773940EE
:101AE00021434FF6FC473A4040F201173A434FF684
:101AF000DD773B404FF6FF7707EA06172F433B435E
:101B0000018102830384F0BD0A460021018B4FF658
:101B10008F7319401143018370470A460021018BDE
:101B200048F6FF7319404FF6FF7303EA0223194387
:101B3000018370470A460021818B4FF68F7319404D
:101B40001143818370470A460021818B48F6FF7359
:101B500019404FF6FF7303EA02231943818370474C
:101B600021B1028842F08002028004E002884FF630
:101B70007F731A400280704721B1828842F00402CC
:101B8000828004E082884FF6FB731A40828070479F
:101B900021B1828842F00802828004E082884FF6F8
:101BA000F7731A408280704721B1828842F00102A7
:101BB000828004E082884FF6FE731A40828070476C
:101BC0000A460021018B4FF6F77319401143018338
:101BD00070470A460021018B4FF2FF7319404FF600
:101BE000FF7303EA02231943018370470A46002169
:101BF000818B4FF6F77319401143818370470A4672
:101C00000021818B4FF2FF7319404FF6FF7303EAF7
:101C100002231943818370470A460021018B4FF646
:101C2000FB7319401143018370470A460021018B61
:101C30004FF6FF3319404FF6FF7303EA02231943AF
:101C4000018370470A460021818B4FF6FB731940D0
:101C50001143818370470A460021818B4FF6FF3381
:101C600019404FF6FF7303EA02231943818370473B
:101C70000A460021018B4FF67F73194011430183FF
:101C800070470A460021018BC1F30E014FF6FF7326
:101C900003EA02231943018370470A460021818B1E
:101CA0004FF67F7319401143818370470A46002124
:101CB000818BC1F30E014FF6FF7303EA0223194330
:101CC000818370470A460021018C4FF6FD7319404D
:101CD0001143018470470A460021018C4FF6F773C7
:101CE00019401143018470470A460021018C4FF6C8
:101CF000DF7319404FF6FF7303EA0213194301849F
:101D000070470A460021018C4FF67F7319404FF649
:101D1000FF7303EA02131943018470470A46002146
:101D2000018C4FF6FF5319404FF6FF7303EA02236D
:101D30001943018470470A460021018C4FF2FF735A
:101D400019404FF6FF7303EA0223194301847047D9
:101D50000A460021018C4DF6FF7319404FF6FF73C0
:101D600003EA023319430184704730B5002301248C
:101D70008C40A3B2048C9C430484048C02FA01F5C9
:101D8000ADB22C43048430BD30B5002304248C4014
:101D9000A3B2048C9C430484048C02FA01F5ADB216
:101DA0002C43048430BD70B503460020002418463F
:101DB000183001258D40ACB21D8CA5431D8409B19E
:101DC000082909D100EB6100056825F07005056060
:101DD0000568154305600EE00D1FC5F34E05284448
:101DE000056825F4E045056005684FF6FF7606EACC
:101DF00002263543056070BD21B1028842F002021F
:101E0000028004E002884FF6FD731A40028070479A
:101E100021B1028842F00402028004E002884FF6F9
:101E2000FB731A400280704721B1828842F0800221
:101E3000828004E082884FF67F731A408280704768
:101E400002884FF6F7731A40028002880A43028024
:101E5000704782884FF68F731A40828082880A43C7
:101E60008280704702894FF6F8731A400281028916
:101E70000A430281704702894FF67F731A4002813C
:101E800002890A43028170478184704781857047C7
:101E9000818670470187704781877047A0F840109E
:101EA000704702884FF6FF431A40028002880A43B7
:101EB000028070470146888E70470146088F704740
:101EC0000146888F70470146B1F8400070470146CF
:101ED000888C70470146088D704702460020138A9F
:101EE0000B400BB1012000E000207047CA43028282
:101EF000704730B50246002000230024158A05EA09
:101F00000103958905EA010413B10CB1012000E039
:101F1000002030BDCA4302827047000010B504465D
:101F2000FB48844209D101218803FEF719FF0021F3
:101F30004FF48040FEF714FF32E0F648844209D1A6
:101F400001214804FEF719FF00214FF40030FEF78D
:101F500014FF25E0F048844209D101218804FEF7EE
:101F60000CFF00214FF48020FEF707FF18E0EB483C
:101F7000844209D10121C804FEF7FFFE00214FF47D
:101F80000020FEF7FAFE0BE0E548844208D101216B
:101F90000805FEF7F2FE00214FF48010FEF7EDFE7B
:101FA00010BD2DE9F04786B005460E460024A24636
:101FB00000BFA1460027B08900B100BF2F462C8A80
:101FC0004CF6FF700440F08804432C82AC894EF636
:101FD000F3100440B08831890843718908430443F1
:101FE000AC81AC8A4FF6FF400440B0890443AC8218
:101FF00001A8FEF72EFEC648874202D1DDF810A0E8
:1020000001E0DDF80CA0A88900F4004040B10AEB23
:10201000CA0000EB0A1031684900B0FBF1F807E094
:102020000AEBCA0000EB0A1031688900B0FBF1F836
:102030006420B8FBF0F004012009642101FB108941
:10204000A88900F4004040B1322000EBC900B0FB89
:10205000F1F000F00700044308E0322000EB091023
:102060006421B0FBF1F000F00F0004432C8106B0B6
:10207000BDE8F0874FF41651016000218180C180D6
:1020800001810C21418100218181704710B50246F8
:102090000020108A4FF2FF0318400B884C8823431E
:1020A0008C882343CC8823431843108210BD002121
:1020B000018041808180C180704721B1828942F4D2
:1020C0000052828104E082894DF6FF731A408281BA
:1020D0007047F0B50346002400260025002040F696
:1020E0006A17B94200D100BF1846C1F3421401F08B
:1020F0001F06012707FA06F5012C01D10C3004E078
:10210000022C01D1103000E014301AB107682F43BF
:10211000076002E00768AF430760F0BD1AB1838A29
:102120000B43838202E0838A8B4383827047028A57
:102130004FF6F0731A400282028A0A430282704705
:1021400082894FF2FF731A40828182890A43828119
:10215000704721B1828942F00202828104E08289C3
:102160004FF6FD731A4082817047028A4FF6DF7383
:102170001A400282028A0A430282704721B1028A0F
:1021800042F48042028204E0028A4BF6FF731A4056
:1021900002827047C1F30802828070470146888836
:1021A000C0F308007047818941F0010181817047C7
:1021B000028BD2B20283028B42EA01220283704771
:1021C000028B02F47F420283028B0A430283704730
:1021D00021B1828A42F02002828204E0828A4FF694
:1021E000DF731A408282704721B1828A42F0100266
:1021F000828204E0828A4FF6EF731A40828270472F
:1022000021B1828A42F00802828204E0828A4FF67B
:10221000F7731A408282704721B1828942F40042EA
:10222000828103E08289C2F30E028281704721B16C
:10223000828A42F40062828204E0828A4FF2FF7353
:102240001A4082827047828A4FF6FB731A4082825C
:10225000828A0A438282704721B1828A42F0020256
:10226000828204E0828A4FF6FD731A4082827047B0
:1022700002460020B1F5007F00D100BF13880B405B
:102280000BB1012000E00020704701F40072B2F5AC
:10229000007F00D100BFCA430280704770B502467C
:1022A000002400230025002040F66A16B14200D128
:1022B00000BFC1F3421501F01F03012606FA03F324
:1022C000012D02D19689334006E0022D02D1168AF3
:1022D000334001E0968A33400C12012606FA04F4DA
:1022E0001688344013B10CB1012000E0002070BD0D
:1022F00010B50022002340F66A14A14200D100BFAD
:102300000A1201249440A3B2DC43048010BD0000F3
:10231000003801400044004000480040004C0040AC
:102320000050004000F0DDF8482000F05FFB4FF463
:10233000A060FDF749FF00F0E3FB00F053F900F067
:10234000C1FF00F00CFC00F0A3FB00F0B5FB00F0B7
:10235000C3FB00F014FF00F00AFB01F06EF900204F
:10236000204908604FF47A735A100121084601F0A1
:10237000A6F94FF47A735A100121022001F09FF957
:102380004FF47A735A100121032001F098F94FF4A9
:102390007A735A100121042001F091F94FF47A73F5
:1023A0005A100121052001F08AF94FF47A735A106E
:1023B0000121062001F083F94FF47A735A100121AC
:1023C000072001F07CF94FF47A735A10012108209C
:1023D00001F075F94FF47A7000F022FB01E000F093
:1023E000D5FCFCE7A4812142704700BFFEE700BF97
:1023F000FEE700BFFEE700BFFEE77047704770478B
:10240000704700000CB50020019000906C480068F7
:1024100040F480306A49086000BF6948006800F4F1
:10242000003000900198401C0190009818B9019864
:10243000B0F5A06FF1D16248006800F4003010B12F
:102440000120009001E0002000900098012843D175
:102450005C48006840F010005A490860084600686F
:1024600020F0030008600846006840F002000860A1
:1024700053484068524948600846406848600846EA
:10248000406840F4806048600846406820F47C1052
:1024900048600846406840F4E81048600846006814
:1024A00040F08070086000BF4548006800F0007090
:1024B0000028F9D04248406820F0030040494860B5
:1024C0000846406840F00200486000BF3C48406851
:1024D00000F00C000828F9D10CBD10B5FFF792FFF1
:1024E00010BD10B53648006840F00100344908605E
:1024F0000846406834490840314948600846006849
:10250000324908402E4908600846006820F48020BF
:1025100008600846406820F4FE0048604FF41F0041
:102520008860FFF7DAFF4FF000602949086010BDAE
:1025300010B5002100200022214B5B6803F00C0144
:1025400021B1042906D0082928D107E0214B224CCB
:10255000236027E01F4B204C236023E0184B5B686F
:1025600003F47010164B5B6803F48032022303EB14
:10257000904022B9194B4343174C23600DE0104B98
:102580005B6803F4003323B1144B4343124C2360C4
:1025900003E0104B4343104C236003E00D4B0E4C03
:1025A000236000BF00BF064B5B68C3F303130C4CF2
:1025B000E15C094B1B68CB40074C236010BD000059
:1025C00000100240002002400000FFF8FFFFF6FE6E
:1025D00008ED00E000127A001400002000093D0020
:1025E0001800002000B587B0012144F20500FEF775
:1025F0009DFB4FF40070ADF8140003208DF8160019
:1026000018208DF8170005A9EB48FEF7D3F84FF412
:102610008060ADF8140048208DF8170005A9E64841
:10262000FEF7C8F84FF4165001900020ADF80800EE
:10263000ADF80A00ADF80C00ADF810000C20ADF8B4
:102640000E0001A9DD48FFF7ACFC012240F2255144
:10265000DA48FFF73EFD0121D848FFF72EFD25207F
:102660008DF8180001208DF8190000208DF81A004F
:1026700001208DF81B0006A8FDF7ABFD07B000BDDB
:1026800000BFCE49098801F040010029F9D0CB49AB
:10269000091D088000BFC949098801F040010029CF
:1026A000F9D0704710B50246002012E000BFC34BBE
:1026B0001B8803F04003002BF9D0135CBF4C241D92
:1026C000238000BFBD4B1B8803F04003002BF9D0D3
:1026D000401C8842EAD310BD70B540F22551B7487E
:1026E000FFF7DCFD00285CD0B448FFF757FDC5B20A
:1026F000B3480078C8B9552D10D1B2480078401CB5
:10270000B04908700846007802280ED100200870F1
:102710000120AB490870AC49087006E00020A849C8
:102720000870A9490870A7490870A54800780028D2
:1027300037D0A648A44909784554A3480078022810
:102740000ED1A248A0490978405CA149087008460A
:102750000078022804DA02200870002098490870E6
:1027600099480078401C98490870084601789848B4
:102770000078801C814214D19648007870B90120FD
:1027800094490870002405E09048005D924908557E
:10279000601CC4B28C4800788442F5DB0020884974
:1027A000087070BDFCB504460D461646022700BFF2
:1027B00000BF00BF00BF55208DF800008DF801005C
:1027C0008DF802708DF803408DF804508DF8056087
:1027D000B81CC1B26846FFF765FFFCBD7D480078B4
:1027E00020B100207B490870012070470020FCE7E1
:1027F0002DE9F04104460F46154698466DB900266E
:1028000009E04FF4005101EB843101EB063000F098
:10281000E4FC701CC6B2042EF3DB4FF4005101EB54
:10282000843101EB85104246402100F019FD681CFF
:10283000B84211D1694A4FF48071080100F0EBFCF5
:10284000664807554FF4805000F0C7FC634A4FF4C8
:102850008071080100F004FDBDE8F08110B500248E
:1028600004E000205D490855601C84B2FF2CF8DDAF
:102870004FF4805000F0B1FC584A4FF480710801C9
:1028800000F0EEFC10BD2DE9F05FFFF7A7FF002878
:102890006BD05348006808B9012000E0002050497F
:1028A00008604D48C578072D46D004DC032D07D0BD
:1028B000062D59D12CE0082D41D0192D54D146E0D8
:1028C0004548077940794449897900EB01201FFA8E
:1028D00080F8002419E004EB4400C01D3E490E5C62
:1028E00004EB44000830095C04EB440009303A4A28
:1028F000105C01EB00201FFA80F943464A46012193
:10290000304600F0DCFE601C84B2BC42E3DB2BE00E
:10291000314890F804B040792F49897900EB0120C3
:102920001FFA80FA002211460620FFF73BFF5146AE
:10293000584600F073FA17E000F0A5FA14E0FFF72C
:102940008DFF002211460820FFF72CFF0CE0224BE0
:102950009A7959791879DB1DFFF74AFF0022114651
:102960001920FFF71FFF00BF00BFBDE8F09F1FB594
:102970001CA103C9CDE902016A460521002000F02F
:102980004AFC002414E002A8005D1DF804108842EF
:102990000CD000201249086000F01FFC02AA05219B
:1029A000002000F05DFCFFF759FF03E0601CC4B29B
:1029B000052CE8DB00BF1FBD0008014000380140C6
:1029C0002A000020290000202B0000208C0100207C
:1029D0002C00002028000020880000209002002009
:1029E000A48121424C4F424F5400000010B50446D0
:1029F0006FF00400FDF737FCE11704EB5171C1F3F0
:102A0000C701F24A11701046007800EB4001C1EB9B
:102A1000C0104FF6FF7101EAC000ED49088010BDFB
:102A20000146EB4A12884A434FF0E0235A610022E4
:102A30009A6101221A6100BF4FF0E022106900F094
:102A400001021AB100F48032002AF5D000224FF0C2
:102A5000E0231A619A6170470146DC4A12784A43C2
:102A60004FF0E0235A6100229A6101221A6100BFEF
:102A70004FF0E022106900F001021AB100F4803238
:102A8000002AF5D000224FF0E0231A619A617047C6
:102A900008B501210820FEF749F94FF40070ADF8A0
:102AA000000010208DF8030003208DF80200694615
:102AB000C848FDF77FFE08BD08B501211020FEF7CC
:102AC00035F90120ADF8000048208DF80300694673
:102AD000C148FDF76FFE08BD08B501211020FEF7C3
:102AE00025F94FF40050ADF8000010208DF80300D8
:102AF00003208DF802006946B748FDF75BFE08BD6C
:102B00001FB501210846FEF71EF90920ADF80400A3
:102B100040F2CF20ADF800000020ADF80600ADF87F
:102B2000020069464FF08040FEF7BEFB01224121C2
:102B30008807FEF730FF01218807FEF711FF1C20F0
:102B40008DF80C0002208DF80D0003208DF80E008A
:102B500001208DF80F0003A8FDF73BFB1FBD00B55A
:102B600087B001214FF40470FEF7E0F84FF4004005
:102B7000FEF740F80820ADF8040000208DF80700AB
:102B800001A99548FDF716FE9448FDF78BFB002040
:102B900002908DF80C008DF80D004FF46020049029
:102BA0000020059001208DF8180002A98B48FDF740
:102BB000A0FB01218948FDF7C8FB8848FDF7E7FB2A
:102BC00000BF8648FDF7E8FB0028FAD18348FDF7EF
:102BD000EDFB00BF8148FDF7EEFB0028FAD1012193
:102BE0007E48FDF7F2FB07B000BD10B50446072391
:102BF000012221467948FDF714FC01217748FDF7B1
:102C0000E4FB00BF02217548FDF750FD0028F9D014
:102C10007248FDF76DFC10BD70B50024002505E07D
:102C20000D20FFF7E2FF0444681CC5B2082DF7DB56
:102C3000E40840F6AB106043840A69490C8070BD1B
:102C40006748008870476748007888B16648006820
:102C5000401C6549086002280DD3002008606348C5
:102C6000006808B9012000E000206049086002E027
:102C700000205E4908605E48007828B90020594964
:102C800008705C4908601FE05948007801281BD192
:102C900058480068401C574908600846006841F2DF
:102CA0008831884203D201204E4908700CE0514817
:102CB000006842F21071884203D20020494908702E
:102CC00002E000204B490860704710B501218807D9
:102CD000FFF70FF9002835D001218807FFF71AF90F
:102CE000FFF7B1FF44480068401C434908600A28C8
:102CF00028D30020086041480068401C3F49086014
:102D00003F480088401C3E490880FFF799FFB0F516
:102D1000C85F0EDA3B480088401C3A4908800846E4
:102D2000008841F2883188420CDD0120304908706A
:102D300008E00020334908803348007810B90020AB
:102D40002B49087010BD10B52C4800682F49096840
:102D500088421AD92D4800680A302C4908602C484E
:102D60000068401C2A4908600846007800F001000D
:102D700008B900F08DFB264800683221B0FBF1F263
:102D800001FB120008B9FFF747FF10BD10B5FFF7B0
:102D9000DAFFFFF778FD00F07BFB00F0C2F8134884
:102DA000B438006880B93C20FFF73AFE0F48B438C9
:102DB000006848B917480068C0431749C1F8A40122
:102DC0000021642000F02AF810BD00003A00002025
:102DD0003C000020000C0140001001400024014094
:102DE000380000205100002054000020B40122428D
:102DF00034000020580000205C000020300000203B
:102E000036000020600000203E000020640000200A
:102E100068000020A48121420080214238B5044688
:102E20000D4604F580506A46012100F0F4F99DF842
:102E30000000002826DD9DF800008F4908708F48AB
:102E40000078A04209D054B900208D4908708D49FE
:102E5000086001208C49087001E08C4805608848B2
:102E6000007878B985480470884805600020884952
:102E7000087084490860012081490870854800680D
:102E80008549086038BD00207D4908707D4908608B
:102E900001207D49087000207D49087070472DE9A8
:102EA000F04790B005460E4600244FF4005101EB68
:102EB000853101EB86106A46402100F0ACF99DF89F
:102EC00000709DF801009DF8021000EB0128082F0A
:102ED00005DDFFF7D8FF002010B0BDE8F087002423
:102EE0001AE004EB4400C01C1DF8009004EB440001
:102EF000001D1DF8001004EB4400401D1DF80000EB
:102F000001EB00201FFA80FA1FFA88F352460121D4
:102F1000484600F0D4FB641CBC42E2D31FFA88F0A0
:102F2000DAE710B556480078002873D05648007884
:102F300001280ED1002054490870554801784F48A7
:102F40000078FFF7ACFF544909680844524908600B
:102F500091E050480068504909688842F8D3012040
:102F6000494908704A480078401CC0B24849087076
:102F70004149097888427EDB002045490870434872
:102F80000068002877D03F480068401C3D49086031
:102F90003E49096888426ED3002211460720FFF798
:102FA00001FC00203649087034480078642804D1B8
:102FB00001216520FFF732FF5DE030480078652889
:102FC00004D101216620FFF729FF54E02B48007847
:102FD000662804D101216720FFF720FF4BE0274836
:102FE0000078672804D101216820FFF717FF42E02D
:102FF00022480078682804D101216920FFF70EFFDC
:1030000039E01E480078692805D101216A20FFF7C0
:1030100005FF30E023E0194800786A2804D1012137
:103020006B20FFF7FBFE26E0144800786B2804D1E4
:1030300001216C20FFF7F2FE1DE0104800786C289B
:1030400004D101216D20FFF7E9FE14E00B48007860
:103050006D2810D101216E20FFF7E0FE0BE000206B
:103060000B490870074908600120074908700948A2
:1030700000680949086010BD81000020710000202F
:1030800070000020780000208000002074000020E4
:1030900082000020300000207C00002070B5054632
:1030A000002405E0601CC4B2C82C01DD002070BD06
:1030B00002217F48FDF7EDFF0028F3D029467C4828
:1030C000FDF794FF002400BF01217948FDF7E1FFDF
:1030D0000028F9D0601CC4B2C82C01DD0020E6E74E
:1030E0007348FDF785FFC0B2E1E708B510217148CC
:1030F000FDF70DFC01210420FDF718FE1020ADF8AE
:1031000000008DF8030003208DF80200694669482D
:10311000FDF750FB012141F20400FDF707FEE0201E
:10312000ADF8000018208DF8030003208DF8020090
:1031300069466048FDF73EFBE0215E48FDF7E7FB8E
:1031400000205D4908804FF482704880002088800C
:103150000220C8800120088140024881082088811F
:103160000020C881072008825148FDF769FE01212F
:103170004F48FDF70AFFFF20FFF790FF08BD10B58D
:10318000FFF7B3FF9620FFF74BFC10BD10B50024EE
:1031900000204A4908600520FFF780FFFF20FFF765
:1031A0007DFF044601204649C1F89001204610BD2C
:1031B00010B500BFFFF7EAFF00F001000028F9D1C9
:1031C00010BD10B500203D4908600620FFF766FFDE
:1031D00001203B49C1F8900110BD10B50446FFF72E
:1031E000F0FFFFF7E5FF0020344908602020FFF7DB
:1031F00055FFC4F30740FFF751FFC4F30720FFF763
:103200004DFFE0B2FFF74AFF01202D49C1F89001C0
:10321000FFF7CEFF10BD2DE9F04104460E461746DC
:103220000020264908600320FFF738FFC4F3074059
:10323000FFF734FFC4F30720FFF730FFE0B2FFF7DA
:103240002DFF002505E0FF20FFF728FF7855681CBB
:1032500085B2B542F7D3012018490860BDE8F08176
:103260002DE9F04104460E461746FFF7AAFF00205D
:10327000124908600220FFF711FFC4F30740FFF76F
:103280000DFFC4F30720FFF709FFE0B2FFF706FFC9
:10329000002504E0785DFFF701FF681C85B2B542A8
:1032A000F8D3012005490860FFF782FFBDE8F081EF
:1032B00000300140000801409003002090012142AD
:1032C0000000214200B587B001218804FDF73BFDD5
:1032D00001210920FDF72AFD4FF48060ADF81400AC
:1032E00003208DF8160018208DF8170005A9A248B4
:1032F000FDF760FA4FF40060ADF8140048208DF837
:10330000170005A99C48FDF755FA4FF41650019097
:103310000020ADF80800ADF80A00ADF80C00ADF8DB
:1033200010000C20ADF80E0001A99448FEF739FEFC
:10333000012240F225519148FEF7CBFE01218F4832
:10334000FEF7BBFE27208DF8180001208DF819002C
:1033500002208DF81A0001208DF81B0006A8FCF74A
:1033600038FF07B000BD10B540F225518348FEF785
:1033700095FF00284CD08148FEF710FFC4B280486A
:103380000078C8B9552C10D17E480078401C7D4982
:1033900008700846007802280ED10020087001202D
:1033A000774908707849087006E000207449087071
:1033B00075490870734908707148007840B37348C4
:1033C0007149097844547048007802280ED16F483A
:1033D0006D490978405C6E490870084600780228FB
:1033E00004DA0220087000206549087066480078F9
:1033F000401C654908700846017865480078801CC3
:10340000814205D101206349087000205C490870A1
:1034100010BD10B50246002012E000BF574B1B88BC
:1034200003F04003002BF9D0135C544C241D23807F
:1034300000BF524B1B8803F04003002BF9D0401C07
:103440008842EAD310BD5348007820B1002051498A
:103450000870012070470020FCE7FCB504460D46CB
:103460001646022700BF00BF00BF00BF55208DF8E1
:1034700000008DF801008DF802708DF803408DF882
:1034800004508DF80560B91C6846FFF7C2FFFCBD0B
:103490002DE9F05FFFF7D7FF00286BD03E480068AA
:1034A00008B9012000E000203B4908603748C57892
:1034B000072D46D004DC032D07D0062D59D12CE072
:1034C000082D41D0192D54D146E030480779407974
:1034D0002E49897900EB01201FFA80F8002419E0B9
:1034E00004EB4400C01D29490E5C04EB4400083085
:1034F000095C04EB44000930244A105C01EB002015
:103500001FFA80F943464A460121304600F0D7F8B9
:10351000601C84B2BC42E3DB2BE01C4890F804B092
:1035200040791A49897900EB01201FFA80FA0022BC
:1035300011460620FFF736F951465846FFF76EFC54
:1035400017E0FFF7A0FC14E0FFF788F9002211460E
:103550000820FFF782FF0CE00C4B9A795979187913
:10356000DB1DFFF745F9002211461920FFF775FF13
:1035700000BF00BFBDE8F09F000C014000480040C4
:10358000850000208400002086000020A203002087
:103590008700002083000020A481214200B587B06D
:1035A00001214804FDF7CFFB01210520FDF7BEFBFB
:1035B0000420ADF8140003208DF8160018208DF8B3
:1035C000170005A96048FDF7F5F80820ADF81400CC
:1035D00048208DF8170005A95B48FDF7EBF84FF47C
:1035E000E13001900020ADF80800ADF80A00ADF818
:1035F0000C00ADF810000C20ADF80E0001A95348E6
:10360000FEF7CFFC012240F225515048FEF761FD44
:1036100001214E48FEF751FD27208DF818000120AA
:103620008DF8190002208DF81A0001208DF81B007A
:1036300006A8FCF7CEFD07B000BD08B5FFF7AEFF4A
:1036400001210420FDF772FB0320ADF800001020DB
:103650008DF8030003208DF8020069463A48FDF713
:10366000A9F800203A49086001203A49C1F88401CC
:1036700008BD10B50246002012E000BF334B1B8886
:1036800003F04003002BF9D0135C304C241D238041
:1036900000BF2E4B1B8803F04003002BF9D0401CC9
:1036A0008842EAD310BD10B540F225512748FEF7F5
:1036B000F5FD18B12548FEF771FDC4B210BD2DE926
:1036C000F04785B081460E461746984604254FF0D0
:1036D000000A012E01D1072500BF00BF55208DF83B
:1036E00000008DF801008DF802908DF803508DF8E0
:1036F0000460F8B28DF8050038128DF8060008F065
:10370000FF008DF807004FEA28208DF808000224FA
:1037100003E01DF804008244641C681C8442F8D94C
:103720006FEA0A00C1B2A81C0DF800100020084979
:10373000086001200749C1F88401E91C6846FFF7C9
:1037400098FF05B0BDE8F087000801400044004044
:103750008001214200002142704770477047754642
:1037600000F02CF8AE4605006946534620F00700ED
:10377000854618B020B5FCF715FDBDE820404FF098
:1037800000064FF000074FF000084FF0000B21F04B
:103790000701AC46ACE8C009ACE8C009ACE8C00918
:1037A000ACE8C0098D46704710B50446AFF3008001
:1037B0002046BDE81040FCF7E0BC00000048704720
:1037C000A804002001491820ABBEFEE72600020035
:1037D00070470000F4370008000000208800000057
:1037E000280100087C38000888000020800A0000BA
:1037F0004401000800000000010203040102030468
:10380000060708090204060800A24A040000000096
:103810000000000001020304060708090000000080
:103820000200000000000000000000000000000096
:1038300000000000F401F401F401F401F401F401CA
:10384000F401F4010000000000000000000000008E
:1038500000000000000000000A000000000000005E
:103860000000000000000000010000000000000057
:0C38700000000000010000000000000249
:04000005080000ED02
:00000001FF
